:02000000602A74
:100006008316031314190D281F301105F000031D64
:080016000D280E280328080044
:0E001E00F201F101F001F801F30100300800D9
:10002C007B15FB1F20280130F300F201F101F001D8
:08003C00FA0DF20CFF30080080
:08004400FA1FF213003008005E
:0C004C0083160313911611160320080000
:10005800FB14FB1F3628FF30F300F200F100F0001C
:08006800FA0DF20CFF30080054
:100070007B14FB1F4328F201FA1FFF30F200F1004E
:0A008000F000FA0DF20CFF3008004A
:10008A00A0017208031D5A287108F2007008F100D5
:10009A00F001A0157208031D5A287108F200F10137
:1000AA00A01120167208031968282008F302031DFC
:1000BA00031C6C280310F21B7028F00DF10DF20DD1
:1000CA00F30B60286C280130FC000F2073280230E3
:0E00DA00FC00162073280430FC0022200800D1
:0600E800032011150800C1
:0C00EE00032083123F0893000320080049
:0A00FA00831603139114032008007D
:1001040083160313911583128C19892885288C1161
:0A011400262083121308F0000800F3
:06011E000320111408008B
:1001240083120313F801F9011030FC00710DF80D6E
:10013400F90D7408F8027508031C750FF902031809
:10014400AA287408F80775080318750FF90703102F
:0A015400F00DF10DFC0B98280800D7
:10015E00831203137008F8007108F000F101F20128
:10016E00F301FB01FC019630F300FA017008F10077
:0C017E007808F000F801F20145200800AC
:10018A0083120313FB01FC01FA0173080319042902
:10019A00F2178E30F302F31BD5280319D528072945
:1001AA00F309F30A08307302031CEA28F300F10D7D
:1001BA007208F100F20108307302031CEA28F10DFB
:1001CA00F1017308031D0310F22873080319F228BA
:1001DA000310F20CF10CF30BED287B1B711CFC28AD
:1001EA00031CFC28F10A0319F20AF21B1329FA1F4D
:1001FA001629F209F109F10A0319F20A1629F2017C
:10020A00F10116297B14FB1F1929F201FA1F19297A
:10021A00FF30F200F100FA0DF20C19290130FC004E
:10022A001B290030FC001B29FF30FC00FC080319C5
:0E023A001F2938207108F0007208F10008003A
:0C02480083160313911211160320080006
:1002540083120313FB017308031D77080319812913
:1002640072087606FA007708F3077E30031C3E29ED
:10027400F302031884294129F302031C8729720815
:10028400F8007108FC007008FD00F817F617031059
:10029400F201F101F0011830A0007D1C5B29740803
:1002A400F00775080318750FF10776080318760F21
:1002B400F207F20CF10CF00CF80CFC0CFD0C031022
:1002C400A00B4F29F21B6B29F80DF00DF10DF20D67
:1002D400F3037B1B701C7D29F81F7D29F00A031989
:1002E400F10A0319F20A031D7D29F20CF10CF00C3A
:1002F400F30A03198429FA1FF21300308929013003
:100304000F20892902302C2089290430162000006E
:020314000800DF
:10031600133083120313FD00FD0B8F29000000002C
:100326001F151F1D972994291E08F100F001831639
:100336001E08F0070318F10AAF202330F400DB3063
:10034600F5007930F6007D30F7002A21C520080037
:100356008F20A0308312BF00772083123008F00070
:10036600F1017008BF00772083122F08BF007720A5
:100376007D20A1308312BF00772082207008B10053
:10038600B201242182207008B300B4012421742014
:1003960083123108F100F0013308F007340803181E
:0603A600013EF107080012
:1003AC003F3083120313B3000630B4005B30B5004A
:1003BC004F30B6006630B7006D30B8007D30B900F4
:1003CC000730BA007F30BB006F30BC008316880149
:1003DC000A30F4000030F50083122F08F0003008CA
:1003EC00F10092207808F0007908F1007008BD0047
:1003FC007108BE000A30F4000030F5002F08F00040
:10040C003008F10092207008B1007108B200051696
:10041C003D08333E8400000888000430FC00E430C2
:10042C00FD00FD0B172AFC0B172A00008501851512
:10043C003108333E8400000888000430FC00E430AE
:10044C00FD00FD0B272AFC0B272A00008501080064
:10045C008F20A0308312BF00772083123008F00069
:10046C00F1017008BF00772083122F08BF0077209E
:10047C0083123208F000F1017008BF00772083125C
:0A048C003108BF007720742008003B
:100496008316031387150716273093002830831217
:0A04A60094008316910194010800F0
:1004B0005130831203139F00803083169F00080081
:1004C00083120313A901AA01AB01AC010130AD00F5
:1004D0000030AE004B2258220711871285110512F9
:1004E000073086008312A701A8010030AF0040301A
:1004F000B0003C30B1000030B2002E22831206085A
:10050000063A031DF22D00302806031D892A00300B
:100510002706031DD82D0030AF004030B000AB21BE
:100520007008A3007108A4000430FB000C30FC002C
:100530003330FD00FD0B9A2AFC0B9A2AFB0B9A2AFA
:10054000000000008B2105302307F3002408031866
:10055000013EF40074087102031DB02A7308700292
:100560000318662CA90A0319AA0A80302A06F0008B
:1005700080307002031DBE2A0A302902031C652C3C
:10058000A901AA0187018716A501A60180302606C8
:10059000F00080307002031DCF2AC83025020318F6
:1005A000FA2A8B217008AF007108B000D6218601AD
:1005B0000630FC003030FD00FD0BDC2AFC0BDC2A91
:1005C00000000608053A031DE82AAD01AE01FA2A2B
:1005D0000608033A031DEF2AAD01AE01FA2A060808
:1005E000063A031DF62AAD01AE01FA2AA50A03193F
:1005F000A60AC62AA501A60180302606F000803092
:100600007002031D052B643025020318282B0030CF
:100610002E06031D0D2B00302D06031D142B01305B
:10062000AD000030AE00282B8B217008AF007108A0
:10063000B000D62106160630FC003030FD00FD0B60
:100640001F2BFC0B1F2B0000A50A0319A60AFC2A6E
:100650000608063A031D312B0130A7000030A80020
:10066000662C0608053A031DCB2B0430FB000C302A
:10067000FC003330FD00FD0B3B2BFC0B3B2BFB0B3D
:100680003B2B0000000000302402031D492B4B309F
:1006900023020318CA2B0030AF004030B0000530F1
:1006A0002307B10024080318013EB2002E220030B7
:1006B0008312AF004030B000AB217008A300710876
:1006C000A400AB01AC0180302C06F0008030700239
:1006D000031D6C2B05302B020318CA2BA501A601A4
:1006E00080302606F00080307002031D792BC83060
:1006F00025020318932B85010630FC003030FD00E5
:10070000FD0B802BFC0B802B00000608053A031D17
:100710008A2B932B0608033A031D8F2B932BA50AD4
:100720000319A60A702BA501A60180302606F00049
:1007300080307002031D9E2BC83025020318BC2B8D
:100740002308AF002408B000D6210630FC0030306A
:10075000FD00FD0BA92BFC0BA92B00000608053A98
:10076000031DB32BBC2B0608033A031DB82BBC2B6F
:10077000A50A0319A60A952BAB0A0319AC0A0608A9
:10078000053A031DC42BCA2B0608033A031DC92BC7
:10079000CA2B632B652C0608033A031D652C043015
:1007A000FB000C30FC003330FD00FD0BD52BFC0BA7
:1007B000D52BFB0BD52B000000002408003C031DAB
:1007C000E32B2308233C0318652C0030AF00403096
:1007D000B00005302302B1000030031C013E2402AA
:1007E000B2002E2200308312AF004030B000AB21A7
:1007F0007008A3007108A400AB01AC0180302C0686
:10080000F00080307002031D072C05302B02031806
:10081000652CA501A60180302606F000803070020C
:10082000031D142CC830250203182E2C8501063018
:10083000FC003030FD00FD0B1B2CFC0B1B2C0000C2
:100840000608033A031D252C2E2C0608053A031D25
:100850002A2C2E2CA50A0319A60A0B2CA501A601E9
:1008600080302606F00080307002031D392CC8301D
:1008700025020318572C2308AF002408B000D62106
:100880000630FC003030FD00FD0B442CFC0B442CEA
:100890000000A50A0319A60A0608033A031D512CF5
:1008A000572C0608053A031D562C572C302CAB0A42
:1008B0000319AC0A0608033A031D5F2C652C0608D1
:1008C000053A031D642C652CFE2BA22A8B210530D2
:1008D0002302F3000030031C013E2402F4007108DF
:1008E0007402031D752C700873020318CD2DA90A1C
:1008F0000319AA0A80302A06F00080307002031D16
:10090000832C0A302902031CCC2DA901AA018701DE
:10091000071506168B217008AF007108B000D621AC
:100920000608163A031D9A2C0130A7000030A800D3
:100930008601CD2D0608153A031D332D0430FB002A
:100940000C30FC003330FD00FD0BA42CFC0BA42C60
:10095000FB0BA42C0000000000302402031DB22C6D
:100960004B3023020318322D05302307F0002408F2
:100970000318013EF1007008A3007108A4000030C4
:10098000AF004030B0007008B1007108B2002E22F4
:100990008312AB01AC0180302C06F0008030700275
:1009A000031DD42C05302B020318322DA501A601FE
:1009B00080302606F00080307002031DE12CC83024
:1009C00025020318FB2C85010630FC003030FD00A9
:1009D000FD0BE82CFC0BE82C0000A50A0319A60A65
:1009E0000608153A031DF52CFB2C0608133A031DC7
:1009F000FA2CFB2CD82CA501A60180302606F0008D
:100A000080307002031D062DC83025020318242DE6
:100A10002308AF002408B000D6210630FC00303097
:100A2000FD00FD0B112DFC0B112D0000A50A031973
:100A3000A60A0608153A031D1E2D242D0608133A92
:100A4000031D232D242DFD2CAB0A0319AC0A060827
:100A5000153A031D2C2D322D0608133A031D312D96
:100A6000322DCB2CCC2D0608133A031DCC2D04308F
:100A7000FB000C30FC003330FD00FD0B3D2DFC0B6A
:100A80003D2DFB0B3D2D000000002408003C031D04
:100A90004B2D2308233C0318CC2D05302302F000F6
:100AA0000030031C013E2402F1007008A30071080D
:100AB000A4000030AF004030B0007008B1007108F1
:100AC000B2002E228312AB01AC0180302C06F00064
:100AD00080307002031D6E2D05302B020318CC2DC3
:100AE000A501A60180302606F00080307002031DAB
:100AF0007B2DC83025020318952D85010630FC009A
:100B00003030FD00FD0B822DFC0B822D0000A50A6C
:100B10000319A60A0608153A031D8F2D952D060800
:100B2000133A031D942D952D722DA501A601803039
:100B30002606F00080307002031DA02DC83025026B
:100B40000318BE2D2308AF002408B000D6210630BC
:100B5000FC003030FD00FD0BAB2DFC0BAB2D00007D
:100B60000608153A031DB52DBE2D0608133A031DC0
:100B7000BA2DBE2DA50A0319A60A972DAB0A031993
:100B8000AC0A0608153A031DC62DCC2D0608133AEB
:100B9000031DCB2DCC2D652D662C0608063A031DB2
:100BA000D62D0130A7000030A800D72DA22AF22DA3
:100BB0000130A7000030A8000430FB000C30FC001E
:100BC0003330FD00FD0BE22DFC0BE22DFB0BE22D83
:100BD000000000000F308605E7308505DB30870513
:080BE000A701A8017E2AF32DF4
:02400E004A2F37
:00000001FF
